{
  "_format": "hh-sol-artifact-1",
  "contractName": "Crowdsale",
  "sourceName": "contracts/Crowdsale.sol",
  "abi": [
    {
      "inputs": [
        {
          "internalType": "address payable",
          "name": "wallet_",
          "type": "address"
        }
      ],
      "stateMutability": "nonpayable",
      "type": "constructor"
    },
    {
      "anonymous": false,
      "inputs": [
        {
          "indexed": true,
          "internalType": "address",
          "name": "previousOwner",
          "type": "address"
        },
        {
          "indexed": true,
          "internalType": "address",
          "name": "newOwner",
          "type": "address"
        }
      ],
      "name": "OwnershipTransferred",
      "type": "event"
    },
    {
      "anonymous": false,
      "inputs": [
        {
          "indexed": true,
          "internalType": "address",
          "name": "purchaser",
          "type": "address"
        },
        {
          "indexed": true,
          "internalType": "address",
          "name": "beneficiary",
          "type": "address"
        },
        {
          "indexed": false,
          "internalType": "uint256",
          "name": "value",
          "type": "uint256"
        },
        {
          "indexed": false,
          "internalType": "uint256",
          "name": "amount",
          "type": "uint256"
        }
      ],
      "name": "TokensPurchased",
      "type": "event"
    },
    {
      "stateMutability": "payable",
      "type": "fallback"
    },
    {
      "inputs": [],
      "name": "Finalize",
      "outputs": [
        {
          "internalType": "bool",
          "name": "",
          "type": "bool"
        }
      ],
      "stateMutability": "nonpayable",
      "type": "function"
    },
    {
      "inputs": [],
      "name": "_buyable",
      "outputs": [
        {
          "internalType": "bool",
          "name": "",
          "type": "bool"
        }
      ],
      "stateMutability": "view",
      "type": "function"
    },
    {
      "inputs": [],
      "name": "_currentRound",
      "outputs": [
        {
          "internalType": "uint256",
          "name": "",
          "type": "uint256"
        }
      ],
      "stateMutability": "view",
      "type": "function"
    },
    {
      "inputs": [],
      "name": "_manager",
      "outputs": [
        {
          "internalType": "address payable",
          "name": "",
          "type": "address"
        }
      ],
      "stateMutability": "view",
      "type": "function"
    },
    {
      "inputs": [
        {
          "internalType": "address",
          "name": "",
          "type": "address"
        }
      ],
      "name": "_payees",
      "outputs": [
        {
          "internalType": "bool",
          "name": "",
          "type": "bool"
        }
      ],
      "stateMutability": "view",
      "type": "function"
    },
    {
      "inputs": [
        {
          "internalType": "address[]",
          "name": "payees",
          "type": "address[]"
        }
      ],
      "name": "addWhitelist",
      "outputs": [],
      "stateMutability": "payable",
      "type": "function"
    },
    {
      "inputs": [],
      "name": "balance",
      "outputs": [
        {
          "internalType": "uint256",
          "name": "",
          "type": "uint256"
        }
      ],
      "stateMutability": "view",
      "type": "function"
    },
    {
      "inputs": [],
      "name": "buyTokens",
      "outputs": [],
      "stateMutability": "payable",
      "type": "function"
    },
    {
      "inputs": [],
      "name": "buyable",
      "outputs": [
        {
          "internalType": "bool",
          "name": "",
          "type": "bool"
        }
      ],
      "stateMutability": "nonpayable",
      "type": "function"
    },
    {
      "inputs": [],
      "name": "claim",
      "outputs": [],
      "stateMutability": "payable",
      "type": "function"
    },
    {
      "inputs": [],
      "name": "finalized",
      "outputs": [
        {
          "internalType": "bool",
          "name": "",
          "type": "bool"
        }
      ],
      "stateMutability": "view",
      "type": "function"
    },
    {
      "inputs": [
        {
          "internalType": "uint256",
          "name": "roundNo",
          "type": "uint256"
        }
      ],
      "name": "getRoundDuration",
      "outputs": [
        {
          "internalType": "uint256",
          "name": "Time",
          "type": "uint256"
        }
      ],
      "stateMutability": "view",
      "type": "function"
    },
    {
      "inputs": [
        {
          "internalType": "uint256",
          "name": "roundNo",
          "type": "uint256"
        }
      ],
      "name": "getRoundEndTime",
      "outputs": [
        {
          "internalType": "uint256",
          "name": "",
          "type": "uint256"
        }
      ],
      "stateMutability": "view",
      "type": "function"
    },
    {
      "inputs": [
        {
          "internalType": "uint256",
          "name": "roundNo",
          "type": "uint256"
        }
      ],
      "name": "getRoundPrice",
      "outputs": [
        {
          "internalType": "uint256",
          "name": "price",
          "type": "uint256"
        }
      ],
      "stateMutability": "view",
      "type": "function"
    },
    {
      "inputs": [
        {
          "internalType": "uint256",
          "name": "roundNo",
          "type": "uint256"
        }
      ],
      "name": "getRoundRemainingDuration",
      "outputs": [
        {
          "internalType": "uint256",
          "name": "",
          "type": "uint256"
        }
      ],
      "stateMutability": "view",
      "type": "function"
    },
    {
      "inputs": [
        {
          "internalType": "uint256",
          "name": "roundNo",
          "type": "uint256"
        }
      ],
      "name": "getRoundlimit",
      "outputs": [
        {
          "internalType": "uint256",
          "name": "limit",
          "type": "uint256"
        }
      ],
      "stateMutability": "view",
      "type": "function"
    },
    {
      "inputs": [
        {
          "internalType": "address",
          "name": "account",
          "type": "address"
        }
      ],
      "name": "isNFTbuy",
      "outputs": [
        {
          "internalType": "bool",
          "name": "",
          "type": "bool"
        }
      ],
      "stateMutability": "view",
      "type": "function"
    },
    {
      "inputs": [],
      "name": "maxBuy",
      "outputs": [
        {
          "internalType": "uint256",
          "name": "",
          "type": "uint256"
        }
      ],
      "stateMutability": "view",
      "type": "function"
    },
    {
      "inputs": [],
      "name": "min",
      "outputs": [
        {
          "internalType": "uint256",
          "name": "",
          "type": "uint256"
        }
      ],
      "stateMutability": "view",
      "type": "function"
    },
    {
      "inputs": [],
      "name": "minBuy",
      "outputs": [
        {
          "internalType": "uint256",
          "name": "",
          "type": "uint256"
        }
      ],
      "stateMutability": "view",
      "type": "function"
    },
    {
      "inputs": [
        {
          "internalType": "uint256",
          "name": "round",
          "type": "uint256"
        }
      ],
      "name": "openRound",
      "outputs": [
        {
          "internalType": "bool",
          "name": "",
          "type": "bool"
        }
      ],
      "stateMutability": "view",
      "type": "function"
    },
    {
      "inputs": [],
      "name": "owner",
      "outputs": [
        {
          "internalType": "address",
          "name": "",
          "type": "address"
        }
      ],
      "stateMutability": "view",
      "type": "function"
    },
    {
      "inputs": [],
      "name": "rate",
      "outputs": [
        {
          "internalType": "uint256",
          "name": "",
          "type": "uint256"
        }
      ],
      "stateMutability": "view",
      "type": "function"
    },
    {
      "inputs": [],
      "name": "renounceOwnership",
      "outputs": [],
      "stateMutability": "nonpayable",
      "type": "function"
    },
    {
      "inputs": [
        {
          "internalType": "uint256",
          "name": "",
          "type": "uint256"
        }
      ],
      "name": "round_purchase",
      "outputs": [
        {
          "internalType": "uint256",
          "name": "",
          "type": "uint256"
        }
      ],
      "stateMutability": "view",
      "type": "function"
    },
    {
      "inputs": [
        {
          "internalType": "uint256",
          "name": "",
          "type": "uint256"
        }
      ],
      "name": "round_startingUnix",
      "outputs": [
        {
          "internalType": "uint256",
          "name": "",
          "type": "uint256"
        }
      ],
      "stateMutability": "view",
      "type": "function"
    },
    {
      "inputs": [
        {
          "internalType": "address",
          "name": "token_",
          "type": "address"
        }
      ],
      "name": "setTokenAddress",
      "outputs": [],
      "stateMutability": "nonpayable",
      "type": "function"
    },
    {
      "inputs": [],
      "name": "startNextRound",
      "outputs": [],
      "stateMutability": "nonpayable",
      "type": "function"
    },
    {
      "inputs": [],
      "name": "success",
      "outputs": [
        {
          "internalType": "bool",
          "name": "",
          "type": "bool"
        }
      ],
      "stateMutability": "view",
      "type": "function"
    },
    {
      "inputs": [],
      "name": "token",
      "outputs": [
        {
          "internalType": "address",
          "name": "",
          "type": "address"
        }
      ],
      "stateMutability": "view",
      "type": "function"
    },
    {
      "inputs": [
        {
          "internalType": "address",
          "name": "newOwner",
          "type": "address"
        }
      ],
      "name": "transferOwnership",
      "outputs": [],
      "stateMutability": "nonpayable",
      "type": "function"
    },
    {
      "inputs": [],
      "name": "wallet",
      "outputs": [
        {
          "internalType": "address payable",
          "name": "",
          "type": "address"
        }
      ],
      "stateMutability": "view",
      "type": "function"
    },
    {
      "inputs": [],
      "name": "weiRaised",
      "outputs": [
        {
          "internalType": "uint256",
          "name": "",
          "type": "uint256"
        }
      ],
      "stateMutability": "view",
      "type": "function"
    },
    {
      "stateMutability": "payable",
      "type": "receive"
    }
  ],
  "bytecode": "0x608060405260006005556000600855678ac7230489e800006009556a075a4ba09d18b8d2300000600a556001426200003891906200025b565b6014556002426200004a9190620001fe565b6015553480156200005a57600080fd5b50604051620033fa380380620033fa8339818101604052810190620000809190620001d2565b620000a062000094620000ef60201b60201c565b620000f760201b60201c565b6001808190555080600360006101000a81548173ffffffffffffffffffffffffffffffffffffffff021916908373ffffffffffffffffffffffffffffffffffffffff1602179055505062000343565b600033905090565b60008060009054906101000a900473ffffffffffffffffffffffffffffffffffffffff169050816000806101000a81548173ffffffffffffffffffffffffffffffffffffffff021916908373ffffffffffffffffffffffffffffffffffffffff1602179055508173ffffffffffffffffffffffffffffffffffffffff168173ffffffffffffffffffffffffffffffffffffffff167f8be0079c531659141344cd1fd0a4f28419497f9722a3daafe3b4186f6b6457e060405160405180910390a35050565b600081519050620001cc8162000329565b92915050565b600060208284031215620001e557600080fd5b6000620001f584828501620001bb565b91505092915050565b60006200020b82620002f0565b91506200021883620002f0565b9250827fffffffffffffffffffffffffffffffffffffffffffffffffffffffffffffffff0382111562000250576200024f620002fa565b5b828201905092915050565b60006200026882620002f0565b91506200027583620002f0565b9250817fffffffffffffffffffffffffffffffffffffffffffffffffffffffffffffffff0483118215151615620002b157620002b0620002fa565b5b828202905092915050565b6000620002c982620002d0565b9050919050565b600073ffffffffffffffffffffffffffffffffffffffff82169050919050565b6000819050919050565b7f4e487b7100000000000000000000000000000000000000000000000000000000600052601160045260246000fd5b6200033481620002bc565b81146200034057600080fd5b50565b6130a780620003536000396000f3fe6080604052600436106101f25760003560e01c8063715018a61161010d578063c5454d11116100a0578063f2fde38b1161006f578063f2fde38b146106e6578063f37cc9f01461070f578063f88979451461074c578063f9d10e7714610777578063fc0c546a146107a257610201565b8063c5454d111461066a578063d0febe4c14610695578063edac985b1461069f578063f0329f6b146106bb57610201565b8063b3f05b97116100dc578063b3f05b971461059a578063b69ef8a8146105c5578063bb4b2195146105f0578063bde22ae01461062d57610201565b8063715018a6146104f057806388c7e397146105075780638bcb06ab146105325780638da5cb5b1461056f57610201565b80634042b66f1161018557806362ed7a7a1161015457806362ed7a7a1461042057806369c6998b1461045d57806370db69d61461049a5780637107d7a6146104c557610201565b80634042b66f146103835780634b83d40c146103ae5780634e71d92d146103eb578063521eb273146103f557610201565b806312b19a13116101c157806312b19a13146102db57806326a4e8d2146103185780632c4e722e146103415780633c3ccc441461036c57610201565b8063038d71531461020b57806303fac106146102485780630b93381b1461027357806310f7bcfa1461029e57610201565b36610201576101ff6107cd565b005b6102096107cd565b005b34801561021757600080fd5b50610232600480360381019061022d91906123c6565b610c82565b60405161023f9190612d59565b60405180910390f35b34801561025457600080fd5b5061025d610d14565b60405161026a9190612d59565b60405180910390f35b34801561027f57600080fd5b50610288610d1e565b6040516102959190612a8c565b60405180910390f35b3480156102aa57600080fd5b506102c560048036038101906102c091906123c6565b610d31565b6040516102d29190612d59565b60405180910390f35b3480156102e757600080fd5b5061030260048036038101906102fd91906123c6565b610d7e565b60405161030f9190612d59565b60405180910390f35b34801561032457600080fd5b5061033f600480360381019061033a9190612333565b610d9b565b005b34801561034d57600080fd5b50610356610ecb565b6040516103639190612d59565b60405180910390f35b34801561037857600080fd5b50610381610ed5565b005b34801561038f57600080fd5b50610398610fb4565b6040516103a59190612d59565b60405180910390f35b3480156103ba57600080fd5b506103d560048036038101906103d091906123c6565b610fbe565b6040516103e29190612d59565b60405180910390f35b6103f3611044565b005b34801561040157600080fd5b5061040a61117f565b6040516104179190612a48565b60405180910390f35b34801561042c57600080fd5b50610447600480360381019061044291906123c6565b6111a9565b6040516104549190612d59565b60405180910390f35b34801561046957600080fd5b50610484600480360381019061047f91906123c6565b6111c1565b6040516104919190612d59565b60405180910390f35b3480156104a657600080fd5b506104af6111d9565b6040516104bc9190612d59565b60405180910390f35b3480156104d157600080fd5b506104da6111df565b6040516104e79190612d59565b60405180910390f35b3480156104fc57600080fd5b506105056111e5565b005b34801561051357600080fd5b5061051c61126d565b6040516105299190612a8c565b60405180910390f35b34801561053e57600080fd5b50610559600480360381019061055491906123c6565b6112aa565b6040516105669190612d59565b60405180910390f35b34801561057b57600080fd5b50610584611337565b6040516105919190612a2d565b60405180910390f35b3480156105a657600080fd5b506105af611360565b6040516105bc9190612a8c565b60405180910390f35b3480156105d157600080fd5b506105da611373565b6040516105e79190612d59565b60405180910390f35b3480156105fc57600080fd5b5061061760048036038101906106129190612333565b611425565b6040516106249190612a8c565b60405180910390f35b34801561063957600080fd5b50610654600480360381019061064f91906123c6565b61147b565b6040516106619190612a8c565b60405180910390f35b34801561067657600080fd5b5061067f6114c9565b60405161068c9190612a8c565b60405180910390f35b61069d6107cd565b005b6106b960048036038101906106b4919061235c565b611626565b005b3480156106c757600080fd5b506106d0611752565b6040516106dd9190612a48565b60405180910390f35b3480156106f257600080fd5b5061070d60048036038101906107089190612333565b611778565b005b34801561071b57600080fd5b5061073660048036038101906107319190612333565b611870565b6040516107439190612a8c565b60405180910390f35b34801561075857600080fd5b50610761611890565b60405161076e9190612d59565b60405180910390f35b34801561078357600080fd5b5061078c611896565b6040516107999190612a8c565b60405180910390f35b3480156107ae57600080fd5b506107b76118a9565b6040516107c49190612a2d565b60405180910390f35b60026001541415610813576040517f08c379a000000000000000000000000000000000000000000000000000000000815260040161080a90612d19565b60405180910390fd5b600260018190555061082e6005546108296118d3565b6118db565b600034905060006001600554141561084d57640165a0bc00905061088b565b60026005541415610865576401dcd65000905061088a565b6003600554141561087d576402540be4009050610889565b600061088857600080fd5b5b5b5b600080670de0b6b3a7640000905082848202816108d1577f4e487b7100000000000000000000000000000000000000000000000000000000600052601260045260246000fd5b049150506109146040518060400160405280601281526020017f436f6e747261637420546f6b656e73203a3a0000000000000000000000000000815250826119f3565b61092060055482611a8f565b5080600260009054906101000a900473ffffffffffffffffffffffffffffffffffffffff1673ffffffffffffffffffffffffffffffffffffffff166370a08231306040518263ffffffff1660e01b815260040161097d9190612a2d565b60206040518083038186803b15801561099557600080fd5b505afa1580156109a9573d6000803e3d6000fd5b505050506040513d601f19601f820116820180604052508101906109cd91906123ef565b1015610a0e576040517f08c379a0000000000000000000000000000000000000000000000000000000008152600401610a0590612b59565b60405180910390fd5b6008548360136000610a1e6118d3565b73ffffffffffffffffffffffffffffffffffffffff1673ffffffffffffffffffffffffffffffffffffffff16815260200190815260200160002054610a639190612e03565b10158015610ac457506009548360136000610a7c6118d3565b73ffffffffffffffffffffffffffffffffffffffff1673ffffffffffffffffffffffffffffffffffffffff16815260200190815260200160002054610ac19190612e03565b11155b610b03576040517f08c379a0000000000000000000000000000000000000000000000000000000008152600401610afa90612b39565b60405180910390fd5b80600d54610b119190612e03565b600d81905550610b2c83600c54611cbd90919063ffffffff16565b600c819055508260136000610b3f6118d3565b73ffffffffffffffffffffffffffffffffffffffff1673ffffffffffffffffffffffffffffffffffffffff16815260200190815260200160002054610b849190612e03565b60136000610b906118d3565b73ffffffffffffffffffffffffffffffffffffffff1673ffffffffffffffffffffffffffffffffffffffff1681526020019081526020016000208190555080600f60003373ffffffffffffffffffffffffffffffffffffffff1673ffffffffffffffffffffffffffffffffffffffff16815260200190815260200160002054610c199190612e03565b600f60003373ffffffffffffffffffffffffffffffffffffffff1673ffffffffffffffffffffffffffffffffffffffff16815260200190815260200160002081905550610c6d610c676118d3565b82611cd3565b610c7683611ce1565b50505060018081905550565b6000806001831415610c9857600a549150610d0e565b6002831415610cab57600a549150610d0d565b6003831415610cca576002600a54610cc39190612e59565b9150610d0c565b6000610d0b576040517f08c379a0000000000000000000000000000000000000000000000000000000008152600401610d0290612bd9565b60405180910390fd5b5b5b5b50919050565b6000600554905090565b600e60009054906101000a900460ff1681565b60006011600083815260200190815260200160002054421015610d7457426011600084815260200190815260200160002054610d6d9190612eb3565b9050610d79565b600090505b919050565b600060116000838152602001908152602001600020549050919050565b610da36118d3565b73ffffffffffffffffffffffffffffffffffffffff16610dc1611337565b73ffffffffffffffffffffffffffffffffffffffff1614610e17576040517f08c379a0000000000000000000000000000000000000000000000000000000008152600401610e0e90612c19565b60405180910390fd5b600073ffffffffffffffffffffffffffffffffffffffff168173ffffffffffffffffffffffffffffffffffffffff161415610e87576040517f08c379a0000000000000000000000000000000000000000000000000000000008152600401610e7e90612b99565b60405180910390fd5b80600260006101000a81548173ffffffffffffffffffffffffffffffffffffffff021916908373ffffffffffffffffffffffffffffffffffffffff16021790555050565b6000600654905090565b610edd6118d3565b73ffffffffffffffffffffffffffffffffffffffff16610efb611337565b73ffffffffffffffffffffffffffffffffffffffff1614610f51576040517f08c379a0000000000000000000000000000000000000000000000000000000008152600401610f4890612c19565b60405180910390fd5b60056000815480929190610f6490612f74565b9190505550610f74600554610fbe565b42610f7f9190612e03565b601160006005548152602001908152602001600020819055504260126000600554815260200190815260200160002081905550565b6000600c54905090565b6000806001831415610fd457610bb8915061103e565b6002831415610fe757610bb8915061103d565b6003831415610ffa57610bb8915061103c565b600061103b576040517f08c379a000000000000000000000000000000000000000000000000000000000815260040161103290612bd9565b60405180910390fd5b5b5b5b50919050565b600e60019054906101000a900460ff16611093576040517f08c379a000000000000000000000000000000000000000000000000000000000815260040161108a90612c99565b60405180910390fd5b6000600f60006110a16118d3565b73ffffffffffffffffffffffffffffffffffffffff1673ffffffffffffffffffffffffffffffffffffffff16815260200190815260200160002054905060008111611121576040517f08c379a000000000000000000000000000000000000000000000000000000000815260040161111890612c59565b60405180910390fd5b61113261112c6118d3565b82611cd3565b600f600061113e6118d3565b73ffffffffffffffffffffffffffffffffffffffff1673ffffffffffffffffffffffffffffffffffffffff1681526020019081526020016000206000905550565b6000600360009054906101000a900473ffffffffffffffffffffffffffffffffffffffff16905090565b60106020528060005260406000206000915090505481565b60126020528060005260406000206000915090505481565b60095481565b60085481565b6111ed6118d3565b73ffffffffffffffffffffffffffffffffffffffff1661120b611337565b73ffffffffffffffffffffffffffffffffffffffff1614611261576040517f08c379a000000000000000000000000000000000000000000000000000000000815260040161125890612c19565b60405180910390fd5b61126b6000611d4d565b565b6000426015541115611295576001600e60026101000a81548160ff0219169083151502179055505b600e60029054906101000a900460ff16905090565b600060018214156112c257640165a0bc009050611332565b60028214156112d8576401dcd650009050611331565b60038214156112ee576402540be4009050611330565b600061132f576040517f08c379a000000000000000000000000000000000000000000000000000000000815260040161132690612bd9565b60405180910390fd5b5b5b5b919050565b60008060009054906101000a900473ffffffffffffffffffffffffffffffffffffffff16905090565b600e60019054906101000a900460ff1681565b6000600260009054906101000a900473ffffffffffffffffffffffffffffffffffffffff1673ffffffffffffffffffffffffffffffffffffffff166370a08231306040518263ffffffff1660e01b81526004016113d09190612a2d565b60206040518083038186803b1580156113e857600080fd5b505afa1580156113fc573d6000803e3d6000fd5b505050506040513d601f19601f8201168201806040525081019061142091906123ef565b905090565b6000600b60008373ffffffffffffffffffffffffffffffffffffffff1673ffffffffffffffffffffffffffffffffffffffff16815260200190815260200160002060009054906101000a900460ff169050919050565b60006012600083815260200190815260200160002054421180156114b15750601160008381526020019081526020016000205442105b156114bf57600190506114c4565b600090505b919050565b600080600d54600260009054906101000a900473ffffffffffffffffffffffffffffffffffffffff1673ffffffffffffffffffffffffffffffffffffffff166370a08231306040518263ffffffff1660e01b815260040161152a9190612a2d565b60206040518083038186803b15801561154257600080fd5b505afa158015611556573d6000803e3d6000fd5b505050506040513d601f19601f8201168201806040525081019061157a91906123ef565b6115849190612eb3565b90506115f5600460009054906101000a900473ffffffffffffffffffffffffffffffffffffffff1682600260009054906101000a900473ffffffffffffffffffffffffffffffffffffffff1673ffffffffffffffffffffffffffffffffffffffff16611e119092919063ffffffff16565b6001600e60016101000a81548160ff021916908315150217905550600e60009054906101000a900460ff1691505090565b61162e6118d3565b73ffffffffffffffffffffffffffffffffffffffff1661164c611337565b73ffffffffffffffffffffffffffffffffffffffff16146116a2576040517f08c379a000000000000000000000000000000000000000000000000000000000815260040161169990612c19565b60405180910390fd5b60008151116116e6576040517f08c379a00000000000000000000000000000000000000000000000000000000081526004016116dd90612c39565b60405180910390fd5b60005b815181101561174e5761173b82828151811061172e577f4e487b7100000000000000000000000000000000000000000000000000000000600052603260045260246000fd5b6020026020010151611e97565b808061174690612f74565b9150506116e9565b5050565b600460009054906101000a900473ffffffffffffffffffffffffffffffffffffffff1681565b6117806118d3565b73ffffffffffffffffffffffffffffffffffffffff1661179e611337565b73ffffffffffffffffffffffffffffffffffffffff16146117f4576040517f08c379a00000000000000000000000000000000000000000000000000000000081526004016117eb90612c19565b60405180910390fd5b600073ffffffffffffffffffffffffffffffffffffffff168173ffffffffffffffffffffffffffffffffffffffff161415611864576040517f08c379a000000000000000000000000000000000000000000000000000000000815260040161185b90612b19565b60405180910390fd5b61186d81611d4d565b50565b600b6020528060005260406000206000915054906101000a900460ff1681565b60075481565b600e60029054906101000a900460ff1681565b6000600260009054906101000a900473ffffffffffffffffffffffffffffffffffffffff16905090565b600033905090565b60126000838152602001908152602001600020544211801561190f5750601160008381526020019081526020016000205442105b61194e576040517f08c379a000000000000000000000000000000000000000000000000000000000815260040161194590612d39565b60405180910390fd5b600182148061195d5750600282145b156119ef57600b60008273ffffffffffffffffffffffffffffffffffffffff1673ffffffffffffffffffffffffffffffffffffffff16815260200190815260200160002060009054906101000a900460ff166119ee576040517f08c379a00000000000000000000000000000000000000000000000000000000081526004016119e590612c79565b60405180910390fd5b5b5050565b611a8b8282604051602401611a09929190612ac9565b6040516020818303038152906040527f9710a9d0000000000000000000000000000000000000000000000000000000007bffffffffffffffffffffffffffffffffffffffffffffffffffffffff19166020820180517bffffffffffffffffffffffffffffffffffffffffffffffffffffffff8381831617835250505050611f62565b5050565b6000806001841415611b3257826010600086815260200190815260200160002054611aba9190612e03565b611ac385610c82565b11611b03576040517f08c379a0000000000000000000000000000000000000000000000000000000008152600401611afa90612bb9565b60405180910390fd5b82601060008681526020019081526020016000206000828254611b269190612e03565b92505081905550611cb6565b6002841415611bd257826010600086815260200190815260200160002054611b5a9190612e03565b611b6385610c82565b11611ba3576040517f08c379a0000000000000000000000000000000000000000000000000000000008152600401611b9a90612cd9565b60405180910390fd5b82601060008681526020019081526020016000206000828254611bc69190612e03565b92505081905550611cb5565b6003841415611c7257826010600086815260200190815260200160002054611bfa9190612e03565b611c0385610c82565b11611c43576040517f08c379a0000000000000000000000000000000000000000000000000000000008152600401611c3a90612af9565b60405180910390fd5b82601060008681526020019081526020016000206000828254611c669190612e03565b92505081905550611cb4565b6000611cb3576040517f08c379a0000000000000000000000000000000000000000000000000000000008152600401611caa90612bd9565b60405180910390fd5b5b5b5b5092915050565b60008183611ccb9190612e03565b905092915050565b611cdd8282611f8b565b5050565b600360009054906101000a900473ffffffffffffffffffffffffffffffffffffffff1673ffffffffffffffffffffffffffffffffffffffff166108fc829081150290604051600060405180830381858888f19350505050158015611d49573d6000803e3d6000fd5b5050565b60008060009054906101000a900473ffffffffffffffffffffffffffffffffffffffff169050816000806101000a81548173ffffffffffffffffffffffffffffffffffffffff021916908373ffffffffffffffffffffffffffffffffffffffff1602179055508173ffffffffffffffffffffffffffffffffffffffff168173ffffffffffffffffffffffffffffffffffffffff167f8be0079c531659141344cd1fd0a4f28419497f9722a3daafe3b4186f6b6457e060405160405180910390a35050565b611e928363a9059cbb60e01b8484604051602401611e30929190612a63565b604051602081830303815290604052907bffffffffffffffffffffffffffffffffffffffffffffffffffffffff19166020820180517bffffffffffffffffffffffffffffffffffffffffffffffffffffffff8381831617835250505050611fdc565b505050565b600073ffffffffffffffffffffffffffffffffffffffff168173ffffffffffffffffffffffffffffffffffffffff161415611f07576040517f08c379a0000000000000000000000000000000000000000000000000000000008152600401611efe90612bf9565b60405180910390fd5b6001600b60008373ffffffffffffffffffffffffffffffffffffffff1673ffffffffffffffffffffffffffffffffffffffff16815260200190815260200160002060006101000a81548160ff02191690831515021790555050565b60008151905060006a636f6e736f6c652e6c6f679050602083016000808483855afa5050505050565b611fd88282600260009054906101000a900473ffffffffffffffffffffffffffffffffffffffff1673ffffffffffffffffffffffffffffffffffffffff16611e119092919063ffffffff16565b5050565b600061203e826040518060400160405280602081526020017f5361666545524332303a206c6f772d6c6576656c2063616c6c206661696c65648152508573ffffffffffffffffffffffffffffffffffffffff166120a39092919063ffffffff16565b905060008151111561209e578080602001905181019061205e919061239d565b61209d576040517f08c379a000000000000000000000000000000000000000000000000000000000815260040161209490612cf9565b60405180910390fd5b5b505050565b60606120b284846000856120bb565b90509392505050565b606082471015612100576040517f08c379a00000000000000000000000000000000000000000000000000000000081526004016120f790612b79565b60405180910390fd5b612109856121cf565b612148576040517f08c379a000000000000000000000000000000000000000000000000000000000815260040161213f90612cb9565b60405180910390fd5b6000808673ffffffffffffffffffffffffffffffffffffffff1685876040516121719190612a16565b60006040518083038185875af1925050503d80600081146121ae576040519150601f19603f3d011682016040523d82523d6000602084013e6121b3565b606091505b50915091506121c38282866121e2565b92505050949350505050565b600080823b905060008111915050919050565b606083156121f257829050612242565b6000835111156122055782518084602001fd5b816040517f08c379a00000000000000000000000000000000000000000000000000000000081526004016122399190612aa7565b60405180910390fd5b9392505050565b600061225c61225784612da5565b612d74565b9050808382526020820190508285602086028201111561227b57600080fd5b60005b858110156122ab578161229188826122b5565b84526020840193506020830192505060018101905061227e565b5050509392505050565b6000813590506122c48161302c565b92915050565b600082601f8301126122db57600080fd5b81356122eb848260208601612249565b91505092915050565b60008151905061230381613043565b92915050565b6000813590506123188161305a565b92915050565b60008151905061232d8161305a565b92915050565b60006020828403121561234557600080fd5b6000612353848285016122b5565b91505092915050565b60006020828403121561236e57600080fd5b600082013567ffffffffffffffff81111561238857600080fd5b612394848285016122ca565b91505092915050565b6000602082840312156123af57600080fd5b60006123bd848285016122f4565b91505092915050565b6000602082840312156123d857600080fd5b60006123e684828501612309565b91505092915050565b60006020828403121561240157600080fd5b600061240f8482850161231e565b91505092915050565b61242181612ef9565b82525050565b61243081612ee7565b82525050565b61243f81612f0b565b82525050565b600061245082612dd1565b61245a8185612de7565b935061246a818560208601612f41565b80840191505092915050565b600061248182612ddc565b61248b8185612df2565b935061249b818560208601612f41565b6124a48161301b565b840191505092915050565b60006124bc601d83612df2565b91507f726f756e642033207075726368617365206c696d6974206578636565640000006000830152602082019050919050565b60006124fc602683612df2565b91507f4f776e61626c653a206e6577206f776e657220697320746865207a65726f206160008301527f64647265737300000000000000000000000000000000000000000000000000006020830152604082019050919050565b6000612562601783612df2565b91507f62757920616d6f756e74206f7574206f6620626f756e640000000000000000006000830152602082019050919050565b60006125a2602e83612df2565b91507f62757920616d6f756e742065786365656473206e6f7420656e6f75676820546f60008301527f6b656e732072656d61696e696e670000000000000000000000000000000000006020830152604082019050919050565b6000612608602683612df2565b91507f416464726573733a20696e73756666696369656e742062616c616e636520666f60008301527f722063616c6c00000000000000000000000000000000000000000000000000006020830152604082019050919050565b600061266e600983612df2565b91507f30206164647265737300000000000000000000000000000000000000000000006000830152602082019050919050565b60006126ae601d83612df2565b91507f726f756e642031207075726368617365206c696d6974206578636565640000006000830152602082019050919050565b60006126ee600f83612df2565b91507f696e636f727265637420726f756e6400000000000000000000000000000000006000830152602082019050919050565b600061272e601c83612df2565b91507f206163636f756e7420697320746865207a65726f2061646472657373000000006000830152602082019050919050565b600061276e602083612df2565b91507f4f776e61626c653a2063616c6c6572206973206e6f7420746865206f776e65726000830152602082019050919050565b60006127ae600a83612df2565b91507f206e6f20706179656573000000000000000000000000000000000000000000006000830152602082019050919050565b60006127ee601183612df2565b91507f3020746f6b656e7320746f20636c61696d0000000000000000000000000000006000830152602082019050919050565b600061282e601783612df2565b91507f796f7520617265206e6f742077686974656c69737465640000000000000000006000830152602082019050919050565b600061286e601583612df2565b91507f49434f206e6f742066696e616c697a65642079657400000000000000000000006000830152602082019050919050565b60006128ae601d83612df2565b91507f416464726573733a2063616c6c20746f206e6f6e2d636f6e74726163740000006000830152602082019050919050565b60006128ee601d83612df2565b91507f726f756e642032207075726368617365206c696d6974206578636565640000006000830152602082019050919050565b600061292e602a83612df2565b91507f5361666545524332303a204552433230206f7065726174696f6e20646964206e60008301527f6f742073756363656564000000000000000000000000000000000000000000006020830152604082019050919050565b6000612994601f83612df2565b91507f5265656e7472616e637947756172643a207265656e7472616e742063616c6c006000830152602082019050919050565b60006129d4600e83612df2565b91507f726f756e642066696e69736865640000000000000000000000000000000000006000830152602082019050919050565b612a1081612f37565b82525050565b6000612a228284612445565b915081905092915050565b6000602082019050612a426000830184612427565b92915050565b6000602082019050612a5d6000830184612418565b92915050565b6000604082019050612a786000830185612427565b612a856020830184612a07565b9392505050565b6000602082019050612aa16000830184612436565b92915050565b60006020820190508181036000830152612ac18184612476565b905092915050565b60006040820190508181036000830152612ae38185612476565b9050612af26020830184612a07565b9392505050565b60006020820190508181036000830152612b12816124af565b9050919050565b60006020820190508181036000830152612b32816124ef565b9050919050565b60006020820190508181036000830152612b5281612555565b9050919050565b60006020820190508181036000830152612b7281612595565b9050919050565b60006020820190508181036000830152612b92816125fb565b9050919050565b60006020820190508181036000830152612bb281612661565b9050919050565b60006020820190508181036000830152612bd2816126a1565b9050919050565b60006020820190508181036000830152612bf2816126e1565b9050919050565b60006020820190508181036000830152612c1281612721565b9050919050565b60006020820190508181036000830152612c3281612761565b9050919050565b60006020820190508181036000830152612c52816127a1565b9050919050565b60006020820190508181036000830152612c72816127e1565b9050919050565b60006020820190508181036000830152612c9281612821565b9050919050565b60006020820190508181036000830152612cb281612861565b9050919050565b60006020820190508181036000830152612cd2816128a1565b9050919050565b60006020820190508181036000830152612cf2816128e1565b9050919050565b60006020820190508181036000830152612d1281612921565b9050919050565b60006020820190508181036000830152612d3281612987565b9050919050565b60006020820190508181036000830152612d52816129c7565b9050919050565b6000602082019050612d6e6000830184612a07565b92915050565b6000604051905081810181811067ffffffffffffffff82111715612d9b57612d9a612fec565b5b8060405250919050565b600067ffffffffffffffff821115612dc057612dbf612fec565b5b602082029050602081019050919050565b600081519050919050565b600081519050919050565b600081905092915050565b600082825260208201905092915050565b6000612e0e82612f37565b9150612e1983612f37565b9250827fffffffffffffffffffffffffffffffffffffffffffffffffffffffffffffffff03821115612e4e57612e4d612fbd565b5b828201905092915050565b6000612e6482612f37565b9150612e6f83612f37565b9250817fffffffffffffffffffffffffffffffffffffffffffffffffffffffffffffffff0483118215151615612ea857612ea7612fbd565b5b828202905092915050565b6000612ebe82612f37565b9150612ec983612f37565b925082821015612edc57612edb612fbd565b5b828203905092915050565b6000612ef282612f17565b9050919050565b6000612f0482612f17565b9050919050565b60008115159050919050565b600073ffffffffffffffffffffffffffffffffffffffff82169050919050565b6000819050919050565b60005b83811015612f5f578082015181840152602081019050612f44565b83811115612f6e576000848401525b50505050565b6000612f7f82612f37565b91507fffffffffffffffffffffffffffffffffffffffffffffffffffffffffffffffff821415612fb257612fb1612fbd565b5b600182019050919050565b7f4e487b7100000000000000000000000000000000000000000000000000000000600052601160045260246000fd5b7f4e487b7100000000000000000000000000000000000000000000000000000000600052604160045260246000fd5b6000601f19601f8301169050919050565b61303581612ee7565b811461304057600080fd5b50565b61304c81612f0b565b811461305757600080fd5b50565b61306381612f37565b811461306e57600080fd5b5056fea2646970667358221220a49cc987a22c5b7b8b6a6e0342414ab31836ebcece2ac0b46a90497f536c9be764736f6c63430008000033",
  "linkReferences": {},
  "deployedLinkReferences": {}
}